{
  "_format": "hh-sol-artifact-1",
  "contractName": "GreenToken",
  "sourceName": "contracts/GreenToken.sol",
  "abi": [
    {
      "inputs": [],
      "stateMutability": "nonpayable",
      "type": "constructor"
    },
    {
      "inputs": [
        {
          "internalType": "address",
          "name": "spender",
          "type": "address"
        },
        {
          "internalType": "uint256",
          "name": "allowance",
          "type": "uint256"
        },
        {
          "internalType": "uint256",
          "name": "needed",
          "type": "uint256"
        }
      ],
      "name": "ERC20InsufficientAllowance",
      "type": "error"
    },
    {
      "inputs": [
        {
          "internalType": "address",
          "name": "sender",
          "type": "address"
        },
        {
          "internalType": "uint256",
          "name": "balance",
          "type": "uint256"
        },
        {
          "internalType": "uint256",
          "name": "needed",
          "type": "uint256"
        }
      ],
      "name": "ERC20InsufficientBalance",
      "type": "error"
    },
    {
      "inputs": [
        {
          "internalType": "address",
          "name": "approver",
          "type": "address"
        }
      ],
      "name": "ERC20InvalidApprover",
      "type": "error"
    },
    {
      "inputs": [
        {
          "internalType": "address",
          "name": "receiver",
          "type": "address"
        }
      ],
      "name": "ERC20InvalidReceiver",
      "type": "error"
    },
    {
      "inputs": [
        {
          "internalType": "address",
          "name": "sender",
          "type": "address"
        }
      ],
      "name": "ERC20InvalidSender",
      "type": "error"
    },
    {
      "inputs": [
        {
          "internalType": "address",
          "name": "spender",
          "type": "address"
        }
      ],
      "name": "ERC20InvalidSpender",
      "type": "error"
    },
    {
      "anonymous": false,
      "inputs": [
        {
          "indexed": true,
          "internalType": "address",
          "name": "owner",
          "type": "address"
        },
        {
          "indexed": true,
          "internalType": "address",
          "name": "spender",
          "type": "address"
        },
        {
          "indexed": false,
          "internalType": "uint256",
          "name": "value",
          "type": "uint256"
        }
      ],
      "name": "Approval",
      "type": "event"
    },
    {
      "anonymous": false,
      "inputs": [
        {
          "indexed": true,
          "internalType": "address",
          "name": "from",
          "type": "address"
        },
        {
          "indexed": true,
          "internalType": "address",
          "name": "to",
          "type": "address"
        },
        {
          "indexed": false,
          "internalType": "uint256",
          "name": "value",
          "type": "uint256"
        }
      ],
      "name": "Transfer",
      "type": "event"
    },
    {
      "inputs": [
        {
          "internalType": "address",
          "name": "owner",
          "type": "address"
        },
        {
          "internalType": "address",
          "name": "spender",
          "type": "address"
        }
      ],
      "name": "allowance",
      "outputs": [
        {
          "internalType": "uint256",
          "name": "",
          "type": "uint256"
        }
      ],
      "stateMutability": "view",
      "type": "function"
    },
    {
      "inputs": [
        {
          "internalType": "address",
          "name": "spender",
          "type": "address"
        },
        {
          "internalType": "uint256",
          "name": "value",
          "type": "uint256"
        }
      ],
      "name": "approve",
      "outputs": [
        {
          "internalType": "bool",
          "name": "",
          "type": "bool"
        }
      ],
      "stateMutability": "nonpayable",
      "type": "function"
    },
    {
      "inputs": [
        {
          "internalType": "address",
          "name": "account",
          "type": "address"
        }
      ],
      "name": "balanceOf",
      "outputs": [
        {
          "internalType": "uint256",
          "name": "",
          "type": "uint256"
        }
      ],
      "stateMutability": "view",
      "type": "function"
    },
    {
      "inputs": [],
      "name": "claimCooldown",
      "outputs": [
        {
          "internalType": "uint256",
          "name": "",
          "type": "uint256"
        }
      ],
      "stateMutability": "view",
      "type": "function"
    },
    {
      "inputs": [],
      "name": "claimStartTime",
      "outputs": [
        {
          "internalType": "uint256",
          "name": "",
          "type": "uint256"
        }
      ],
      "stateMutability": "view",
      "type": "function"
    },
    {
      "inputs": [
        {
          "internalType": "uint256",
          "name": "tokensProvided",
          "type": "uint256"
        }
      ],
      "name": "claimTokens",
      "outputs": [],
      "stateMutability": "nonpayable",
      "type": "function"
    },
    {
      "inputs": [],
      "name": "decimals",
      "outputs": [
        {
          "internalType": "uint8",
          "name": "",
          "type": "uint8"
        }
      ],
      "stateMutability": "view",
      "type": "function"
    },
    {
      "inputs": [
        {
          "internalType": "address",
          "name": "",
          "type": "address"
        }
      ],
      "name": "lastClaimedAt",
      "outputs": [
        {
          "internalType": "uint256",
          "name": "",
          "type": "uint256"
        }
      ],
      "stateMutability": "view",
      "type": "function"
    },
    {
      "inputs": [],
      "name": "name",
      "outputs": [
        {
          "internalType": "string",
          "name": "",
          "type": "string"
        }
      ],
      "stateMutability": "view",
      "type": "function"
    },
    {
      "inputs": [],
      "name": "symbol",
      "outputs": [
        {
          "internalType": "string",
          "name": "",
          "type": "string"
        }
      ],
      "stateMutability": "view",
      "type": "function"
    },
    {
      "inputs": [],
      "name": "totalSupply",
      "outputs": [
        {
          "internalType": "uint256",
          "name": "",
          "type": "uint256"
        }
      ],
      "stateMutability": "view",
      "type": "function"
    },
    {
      "inputs": [
        {
          "internalType": "address",
          "name": "to",
          "type": "address"
        },
        {
          "internalType": "uint256",
          "name": "value",
          "type": "uint256"
        }
      ],
      "name": "transfer",
      "outputs": [
        {
          "internalType": "bool",
          "name": "",
          "type": "bool"
        }
      ],
      "stateMutability": "nonpayable",
      "type": "function"
    },
    {
      "inputs": [
        {
          "internalType": "address",
          "name": "from",
          "type": "address"
        },
        {
          "internalType": "address",
          "name": "to",
          "type": "address"
        },
        {
          "internalType": "uint256",
          "name": "value",
          "type": "uint256"
        }
      ],
      "name": "transferFrom",
      "outputs": [
        {
          "internalType": "bool",
          "name": "",
          "type": "bool"
        }
      ],
      "stateMutability": "nonpayable",
      "type": "function"
    }
  ],
  "bytecode": "0x608060405262278d0060075534801561001757600080fd5b506040518060400160405280600e81526020017f477265656e546f6b656e436f696e0000000000000000000000000000000000008152506040518060400160405280600381526020017f475443000000000000000000000000000000000000000000000000000000000081525081600390816100939190610302565b5080600490816100a39190610302565b505050426006819055506103d4565b600081519050919050565b7f4e487b7100000000000000000000000000000000000000000000000000000000600052604160045260246000fd5b7f4e487b7100000000000000000000000000000000000000000000000000000000600052602260045260246000fd5b6000600282049050600182168061013357607f821691505b602082108103610146576101456100ec565b5b50919050565b60008190508160005260206000209050919050565b60006020601f8301049050919050565b600082821b905092915050565b6000600883026101ae7fffffffffffffffffffffffffffffffffffffffffffffffffffffffffffffffff82610171565b6101b88683610171565b95508019841693508086168417925050509392505050565b6000819050919050565b6000819050919050565b60006101ff6101fa6101f5846101d0565b6101da565b6101d0565b9050919050565b6000819050919050565b610219836101e4565b61022d61022582610206565b84845461017e565b825550505050565b600090565b610242610235565b61024d818484610210565b505050565b5b818110156102715761026660008261023a565b600181019050610253565b5050565b601f8211156102b6576102878161014c565b61029084610161565b8101602085101561029f578190505b6102b36102ab85610161565b830182610252565b50505b505050565b600082821c905092915050565b60006102d9600019846008026102bb565b1980831691505092915050565b60006102f283836102c8565b9150826002028217905092915050565b61030b826100b2565b67ffffffffffffffff811115610324576103236100bd565b5b61032e825461011b565b610339828285610275565b600060209050601f83116001811461036c576000841561035a578287015190505b61036485826102e6565b8655506103cc565b601f19841661037a8661014c565b60005b828110156103a25784890151825560018201915060208501945060208101905061037d565b868310156103bf57848901516103bb601f8916826102c8565b8355505b6001600288020188555050505b505050505050565b6112e5806103e36000396000f3fe608060405234801561001057600080fd5b50600436106100cf5760003560e01c806346e04a2f1161008c578063a6a11bb111610066578063a6a11bb114610228578063a9059cbb14610246578063dd62ed3e14610276578063fdea3657146102a6576100cf565b806346e04a2f146101be57806370a08231146101da57806395d89b411461020a576100cf565b806306fdde03146100d4578063095ea7b3146100f257806318160ddd1461012257806323b872dd1461014057806326a40c9914610170578063313ce567146101a0575b600080fd5b6100dc6102c4565b6040516100e99190610d7c565b60405180910390f35b61010c60048036038101906101079190610e37565b610356565b6040516101199190610e92565b60405180910390f35b61012a610379565b6040516101379190610ebc565b60405180910390f35b61015a60048036038101906101559190610ed7565b610383565b6040516101679190610e92565b60405180910390f35b61018a60048036038101906101859190610f2a565b6103b2565b6040516101979190610ebc565b60405180910390f35b6101a86103ca565b6040516101b59190610f73565b60405180910390f35b6101d860048036038101906101d39190610f8e565b6103d3565b005b6101f460048036038101906101ef9190610f2a565b61053b565b6040516102019190610ebc565b60405180910390f35b610212610583565b60405161021f9190610d7c565b60405180910390f35b610230610615565b60405161023d9190610ebc565b60405180910390f35b610260600480360381019061025b9190610e37565b61061b565b60405161026d9190610e92565b60405180910390f35b610290600480360381019061028b9190610fbb565b61063e565b60405161029d9190610ebc565b60405180910390f35b6102ae6106c5565b6040516102bb9190610ebc565b60405180910390f35b6060600380546102d39061102a565b80601f01602080910402602001604051908101604052809291908181526020018280546102ff9061102a565b801561034c5780601f106103215761010080835404028352916020019161034c565b820191906000526020600020905b81548152906001019060200180831161032f57829003601f168201915b5050505050905090565b6000806103616106cb565b905061036e8185856106d3565b600191505092915050565b6000600254905090565b60008061038e6106cb565b905061039b8582856106e5565b6103a685858561077a565b60019150509392505050565b60056020528060005260406000206000915090505481565b60006012905090565b600654421015610418576040517f08c379a000000000000000000000000000000000000000000000000000000000815260040161040f906110a7565b60405180910390fd5b600754600560003373ffffffffffffffffffffffffffffffffffffffff1673ffffffffffffffffffffffffffffffffffffffff1681526020019081526020016000205461046591906110f6565b4210156104a7576040517f08c379a000000000000000000000000000000000000000000000000000000000815260040161049e9061119c565b60405180910390fd5b600081116104ea576040517f08c379a00000000000000000000000000000000000000000000000000000000081526004016104e19061122e565b60405180910390fd5b42600560003373ffffffffffffffffffffffffffffffffffffffff1673ffffffffffffffffffffffffffffffffffffffff16815260200190815260200160002081905550610538338261086e565b50565b60008060008373ffffffffffffffffffffffffffffffffffffffff1673ffffffffffffffffffffffffffffffffffffffff168152602001908152602001600020549050919050565b6060600480546105929061102a565b80601f01602080910402602001604051908101604052809291908181526020018280546105be9061102a565b801561060b5780601f106105e05761010080835404028352916020019161060b565b820191906000526020600020905b8154815290600101906020018083116105ee57829003601f168201915b5050505050905090565b60065481565b6000806106266106cb565b905061063381858561077a565b600191505092915050565b6000600160008473ffffffffffffffffffffffffffffffffffffffff1673ffffffffffffffffffffffffffffffffffffffff16815260200190815260200160002060008373ffffffffffffffffffffffffffffffffffffffff1673ffffffffffffffffffffffffffffffffffffffff16815260200190815260200160002054905092915050565b60075481565b600033905090565b6106e083838360016108f0565b505050565b60006106f1848461063e565b90507fffffffffffffffffffffffffffffffffffffffffffffffffffffffffffffffff8110156107745781811015610764578281836040517ffb8f41b200000000000000000000000000000000000000000000000000000000815260040161075b9392919061125d565b60405180910390fd5b610773848484840360006108f0565b5b50505050565b600073ffffffffffffffffffffffffffffffffffffffff168373ffffffffffffffffffffffffffffffffffffffff16036107ec5760006040517f96c6fd1e0000000000000000000000000000000000000000000000000000000081526004016107e39190611294565b60405180910390fd5b600073ffffffffffffffffffffffffffffffffffffffff168273ffffffffffffffffffffffffffffffffffffffff160361085e5760006040517fec442f050000000000000000000000000000000000000000000000000000000081526004016108559190611294565b60405180910390fd5b610869838383610ac7565b505050565b600073ffffffffffffffffffffffffffffffffffffffff168273ffffffffffffffffffffffffffffffffffffffff16036108e05760006040517fec442f050000000000000000000000000000000000000000000000000000000081526004016108d79190611294565b60405180910390fd5b6108ec60008383610ac7565b5050565b600073ffffffffffffffffffffffffffffffffffffffff168473ffffffffffffffffffffffffffffffffffffffff16036109625760006040517fe602df050000000000000000000000000000000000000000000000000000000081526004016109599190611294565b60405180910390fd5b600073ffffffffffffffffffffffffffffffffffffffff168373ffffffffffffffffffffffffffffffffffffffff16036109d45760006040517f94280d620000000000000000000000000000000000000000000000000000000081526004016109cb9190611294565b60405180910390fd5b81600160008673ffffffffffffffffffffffffffffffffffffffff1673ffffffffffffffffffffffffffffffffffffffff16815260200190815260200160002060008573ffffffffffffffffffffffffffffffffffffffff1673ffffffffffffffffffffffffffffffffffffffff168152602001908152602001600020819055508015610ac1578273ffffffffffffffffffffffffffffffffffffffff168473ffffffffffffffffffffffffffffffffffffffff167f8c5be1e5ebec7d5bd14f71427d1e84f3dd0314c0f7b2291e5b200ac8c7c3b92584604051610ab89190610ebc565b60405180910390a35b50505050565b600073ffffffffffffffffffffffffffffffffffffffff168373ffffffffffffffffffffffffffffffffffffffff1603610b19578060026000828254610b0d91906110f6565b92505081905550610bec565b60008060008573ffffffffffffffffffffffffffffffffffffffff1673ffffffffffffffffffffffffffffffffffffffff16815260200190815260200160002054905081811015610ba5578381836040517fe450d38c000000000000000000000000000000000000000000000000000000008152600401610b9c9392919061125d565b60405180910390fd5b8181036000808673ffffffffffffffffffffffffffffffffffffffff1673ffffffffffffffffffffffffffffffffffffffff16815260200190815260200160002081905550505b600073ffffffffffffffffffffffffffffffffffffffff168273ffffffffffffffffffffffffffffffffffffffff1603610c355780600260008282540392505081905550610c82565b806000808473ffffffffffffffffffffffffffffffffffffffff1673ffffffffffffffffffffffffffffffffffffffff168152602001908152602001600020600082825401925050819055505b8173ffffffffffffffffffffffffffffffffffffffff168373ffffffffffffffffffffffffffffffffffffffff167fddf252ad1be2c89b69c2b068fc378daa952ba7f163c4a11628f55a4df523b3ef83604051610cdf9190610ebc565b60405180910390a3505050565b600081519050919050565b600082825260208201905092915050565b60005b83811015610d26578082015181840152602081019050610d0b565b60008484015250505050565b6000601f19601f8301169050919050565b6000610d4e82610cec565b610d588185610cf7565b9350610d68818560208601610d08565b610d7181610d32565b840191505092915050565b60006020820190508181036000830152610d968184610d43565b905092915050565b600080fd5b600073ffffffffffffffffffffffffffffffffffffffff82169050919050565b6000610dce82610da3565b9050919050565b610dde81610dc3565b8114610de957600080fd5b50565b600081359050610dfb81610dd5565b92915050565b6000819050919050565b610e1481610e01565b8114610e1f57600080fd5b50565b600081359050610e3181610e0b565b92915050565b60008060408385031215610e4e57610e4d610d9e565b5b6000610e5c85828601610dec565b9250506020610e6d85828601610e22565b9150509250929050565b60008115159050919050565b610e8c81610e77565b82525050565b6000602082019050610ea76000830184610e83565b92915050565b610eb681610e01565b82525050565b6000602082019050610ed16000830184610ead565b92915050565b600080600060608486031215610ef057610eef610d9e565b5b6000610efe86828701610dec565b9350506020610f0f86828701610dec565b9250506040610f2086828701610e22565b9150509250925092565b600060208284031215610f4057610f3f610d9e565b5b6000610f4e84828501610dec565b91505092915050565b600060ff82169050919050565b610f6d81610f57565b82525050565b6000602082019050610f886000830184610f64565b92915050565b600060208284031215610fa457610fa3610d9e565b5b6000610fb284828501610e22565b91505092915050565b60008060408385031215610fd257610fd1610d9e565b5b6000610fe085828601610dec565b9250506020610ff185828601610dec565b9150509250929050565b7f4e487b7100000000000000000000000000000000000000000000000000000000600052602260045260246000fd5b6000600282049050600182168061104257607f821691505b60208210810361105557611054610ffb565b5b50919050565b7f436c61696d20706572696f6420686173206e6f74207374617274656420796574600082015250565b6000611091602083610cf7565b915061109c8261105b565b602082019050919050565b600060208201905081810360008301526110c081611084565b9050919050565b7f4e487b7100000000000000000000000000000000000000000000000000000000600052601160045260246000fd5b600061110182610e01565b915061110c83610e01565b9250828201905080821115611124576111236110c7565b5b92915050565b7f596f75206d75737420776169742033302064617973206265747765656e20636c60008201527f61696d7300000000000000000000000000000000000000000000000000000000602082015250565b6000611186602483610cf7565b91506111918261112a565b604082019050919050565b600060208201905081810360008301526111b581611179565b9050919050565b7f4e6f20746f6b656e7320617661696c61626c6520666f7220636c61696d20626160008201527f736564206f6e2074686520646563726561736520636f6e646974696f6e000000602082015250565b6000611218603d83610cf7565b9150611223826111bc565b604082019050919050565b600060208201905081810360008301526112478161120b565b9050919050565b61125781610dc3565b82525050565b6000606082019050611272600083018661124e565b61127f6020830185610ead565b61128c6040830184610ead565b949350505050565b60006020820190506112a9600083018461124e565b9291505056fea2646970667358221220cf35981b8c701574a6e8842b91f0ad25c853247f494f838fdf65276446f457b064736f6c634300081c0033",
  "linkReferences": {},
  "deployedLinkReferences": {}
}